{
    "contractName": "ContractA",
    "abi": [
        {
            "inputs": [
                {
                    "internalType": "address",
                    "name": "_contractB",
                    "type": "address"
                }
            ],
            "stateMutability": "nonpayable",
            "type": "constructor"
        },
        {
            "anonymous": false,
            "inputs": [
                {
                    "indexed": true,
                    "internalType": "uint256",
                    "name": "_value",
                    "type": "uint256"
                },
                {
                    "indexed": true,
                    "internalType": "address",
                    "name": "_address",
                    "type": "address"
                },
                {
                    "indexed": false,
                    "internalType": "bool",
                    "name": "_flag",
                    "type": "bool"
                }
            ],
            "name": "EventA",
            "type": "event"
        },
        {
            "inputs": [],
            "name": "contractB",
            "outputs": [
                {
                    "internalType": "contract IContractB",
                    "name": "",
                    "type": "address"
                }
            ],
            "stateMutability": "view",
            "type": "function"
        },
        {
            "inputs": [
                {
                    "internalType": "uint256",
                    "name": "_value",
                    "type": "uint256"
                },
                {
                    "internalType": "address",
                    "name": "_address",
                    "type": "address"
                },
                {
                    "internalType": "bool",
                    "name": "_flag",
                    "type": "bool"
                }
            ],
            "name": "triggerEvents",
            "outputs": [],
            "stateMutability": "nonpayable",
            "type": "function"
        }
    ],
    "bytecode": "0x608060405234801561001057600080fd5b5060405161034e38038061034e83398101604081905261002f91610089565b600080546001600160a01b0319166001600160a01b03929092169190911790556100b2565b60006001600160a01b0382165b92915050565b61007081610054565b811461007b57600080fd5b50565b805161006181610067565b60006020828403121561009e5761009e600080fd5b60006100aa848461007e565b949350505050565b61028d806100c16000396000f3fe608060405234801561001057600080fd5b50600436106100365760003560e01c80633ec0539a1461003b5780639ff8a36814610050575b600080fd5b61004e61004936600461017f565b610079565b005b600054610063906001600160a01b031681565b60405161007091906101f4565b60405180910390f35b816001600160a01b0316837f1e0374ab5525c828a7c8419f92fb3b175eb09e5fae713952ab8ba7a83e21f375836040516100b3919061020a565b60405180910390a360005460405163aee4541360e01b81526001600160a01b039091169063aee45413906100ef90869086908690600401610227565b600060405180830381600087803b15801561010957600080fd5b505af115801561011d573d6000803e3d6000fd5b50505050505050565b805b811461013357600080fd5b50565b803561014181610126565b92915050565b60006001600160a01b038216610141565b61012881610147565b803561014181610158565b801515610128565b80356101418161016c565b60008060006060848603121561019757610197600080fd5b60006101a38686610136565b93505060206101b486828701610161565b92505060406101c586828701610174565b9150509250925092565b600061014182610147565b6000610141826101cf565b6101ee816101da565b82525050565b6020810161014182846101e5565b8015156101ee565b602081016101418284610202565b806101ee565b6101ee81610147565b606081016102358286610218565b610242602083018561021e565b61024f6040830184610202565b94935050505056fea264697066735822122037e0364e53bdbdcac78eeb19e7cbf60cf513e0d01005b12373ccb40ba36de85264736f6c63430008110033",
    "immutableReferences": {},
    "source": "// SPDX-License-Identifier: MIT\npragma solidity 0.8.17;\n\nimport \"./Interfaces/IContractB.sol\"; // Import the interface\n\ncontract ContractA {\n    event EventA(uint indexed _value, address indexed _address, bool _flag);\n\n    IContractB public contractB;\n\n    constructor(address _contractB) {\n        contractB = IContractB(_contractB);\n    }\n\n    function triggerEvents(uint _value, address _address, bool _flag) public {\n        emit EventA(_value, _address, _flag); // Emit event for Contract A\n        contractB.triggerEventB(_value, _address, _flag); // Call Contract B via its interface\n    }\n}\n",
    "sourcePath": "/Users/sangjun/Documents/Fathom/test-contracts-event/contracts/ContractA.sol",
    "compiler": {
        "name": "solc",
        "version": "0.8.17+commit.8df45f5f.Darwin.appleclang"
    },
    "schemaVersion": "3.4.14",
    "updatedAt": "2023-12-03T14:53:15.320Z",
    "devdoc": {
        "kind": "dev",
        "methods": {},
        "version": 1
    },
    "userdoc": {
        "kind": "user",
        "methods": {},
        "version": 1
    }
}