{
    "contractName": "ContractB",
    "abi": [
        {
            "anonymous": false,
            "inputs": [
                {
                    "indexed": true,
                    "internalType": "uint256",
                    "name": "_value",
                    "type": "uint256"
                },
                {
                    "indexed": true,
                    "internalType": "address",
                    "name": "_address",
                    "type": "address"
                },
                {
                    "indexed": false,
                    "internalType": "bool",
                    "name": "_flag",
                    "type": "bool"
                }
            ],
            "name": "EventB",
            "type": "event"
        },
        {
            "inputs": [
                {
                    "internalType": "uint256",
                    "name": "_value",
                    "type": "uint256"
                },
                {
                    "internalType": "address",
                    "name": "_address",
                    "type": "address"
                },
                {
                    "internalType": "bool",
                    "name": "_flag",
                    "type": "bool"
                }
            ],
            "name": "triggerEventB",
            "outputs": [],
            "stateMutability": "nonpayable",
            "type": "function"
        }
    ],
    "bytecode": "0x608060405234801561001057600080fd5b50610179806100206000396000f3fe608060405234801561001057600080fd5b506004361061002b5760003560e01c8063aee4541314610030575b600080fd5b61004361003e3660046100e5565b610045565b005b816001600160a01b0316837f0c0701e224ce42490a69e6b47f61f55a6581b672d1d25a11e170973662cffaa58360405161007f9190610135565b60405180910390a3505050565b805b811461009957600080fd5b50565b80356100a78161008c565b92915050565b60006001600160a01b0382166100a7565b61008e816100ad565b80356100a7816100be565b80151561008e565b80356100a7816100d2565b6000806000606084860312156100fd576100fd600080fd5b6000610109868661009c565b935050602061011a868287016100c7565b925050604061012b868287016100da565b9150509250925092565b8115158152602081016100a756fea26469706673582212200cea06f773ee21415cb16b23d1e38df3e38d1908573c3d53b262fa15eb9911f264736f6c63430008110033",
    "immutableReferences": {},
    "source": "// SPDX-License-Identifier: MIT\npragma solidity 0.8.17;\n\ncontract ContractB {\n    event EventB(uint indexed _value, address indexed _address, bool _flag);\n\n    function triggerEventB(uint _value, address _address, bool _flag) public {\n        emit EventB(_value, _address, _flag);\n    }\n}\n",
    "sourcePath": "/Users/sangjun/Documents/Fathom/test-contracts-event/contracts/ContractB.sol",
    "compiler": {
        "name": "solc",
        "version": "0.8.17+commit.8df45f5f.Darwin.appleclang"
    },
    "schemaVersion": "3.4.14",
    "updatedAt": "2023-12-03T14:53:15.321Z",
    "devdoc": {
        "kind": "dev",
        "methods": {},
        "version": 1
    },
    "userdoc": {
        "kind": "user",
        "methods": {},
        "version": 1
    }
}